:100000000C9439010C945A010C945A010C945A0125
:100010000C945A010C945A010C945A010C945A01F4
:100020000C945A010C945A010C945A010C945A01E4
:100030000C945A010C945A010C945A010C945A01D4
:100040000C945A010C945A010C945A010C945A01C4
:100050000C945A010C945A010C945A010C94E60227
:100060000C945A010C945A010C945A010C945A01A4
:100070000C945A010C945A010C945A010C945A0194
:100080000C945A010C945A010C945A010C945A0184
:100090000C945A010C945A010C945A010C945A0174
:1000A0000C945A010C945A010C945A010C945A0164
:1000B0000C945A010C945A010C945A010C945A0154
:1000C0000C945A010C945A010C945A010C945A0144
:1000D0000C945A010C945A010C945A010C945A0134
:1000E0000C945A010C947C020C942D020C94CA01BD
:1000F0000C94E1020C94F7010C945E020C94E9015B
:100100000C943A020C94A5020C94AB010C94D70108
:100110000C9434020C94D1010C94D5020C9452022C
:100120000C94FD010C94F3010C94BD020C94CE01CF
:100130000C94C2010C9401020C94DB010C94EF01AD
:100140000C9467020C94E5010C9446020C94E101B6
:100150000C94C6010C94B0010C94B1020C94700282
:100160000C9488020C94C9020C94940200000A0BAF
:1001700002090C0D0E080703040100000000000036
:10018000000000000000000000000000000000006F
:10019000000000000000000012111000000000002C
:1001A000000000000000000000000000000000004F
:1001B000000000002200250028002B002E00310046
:1001C000340002010000050108010B0100002100BC
:1001D000240027002A002D00300033000101000018
:1001E000040107010A0105050505070508080808B7
:1001F000020202020A0A08080404040401010101BF
:1002000001010101030303030303030304070707B9
:100210000C0C0C0C0C0C0C0C02020202060606065E
:10022000060606060B0B0B0B0B0B0B0B010210202B
:10023000200808102040102040800201020108041C
:1002400002010102040810204080804020100804B0
:100250000201800402018040201008040201080409
:10026000020101020408102040800102040810204D
:10027000408011241FBECFEFD1E2DEBFCDBF00E032
:100280000CBF12E0A0E0B2E0E2E0F8E000E00BBF5B
:1002900002C007900D92A831B107D9F722E0A8E17A
:1002A000B2E001C01D92A132B207E1F70E94300313
:1002B0000C94FF030C94000090E0FC01E45DFD4F02
:1002C00024918A519E4FFC018491882399F090E0FB
:1002D000880F991FFC01E453FE4FA591B491FC01D6
:1002E000EE54FE4F859194918FB7F894EC91E22BE8
:1002F000EC938FBF0895282F30E0F901E459FE4FA9
:100300009491F901E45DFD4F44912A513E4FF9016A
:100310002491222309F435C0992311F1915092318F
:10032000F8F4E92FF0E08827E756FE4F8F4F0C9442
:10033000F703CA01CE01AB01C201C601B001D10170
:10034000D701DB01E101E501E901EF01F301B001B2
:10035000F701FD010102809180008F77809380007A
:10036000E22FF0E0EE0FFF1FEE54FE4FA591B49187
:100370008FB7F894EC91611148C040954E234C938F
:100380008FBF0895809180008F7DE8CF809180009D
:10039000877FE4CF84B58F7784BDE2CF84B58F7D2E
:1003A000FBCF8091B0008F778093B000D9CF809140
:1003B000B0008F7DF9CF809190008F77809390006F
:1003C000CFCF809190008F7DF9CF80919000877F73
:1003D000F5CF8091A0008F778093A000C1CF80914E
:1003E000A0008F7DF9CF8091A000877FF5CF80910D
:1003F00020018F7780932001B3CF809120018F7DE2
:10040000F9CF80912001877FF5CF4E2BB8CFCF93C6
:10041000C82F0E945C01EC2FF0E0E459FE4FE491FC
:10042000E150E23108F0CDC0F0E08827E55EFD4FF5
:100430008F4F0C94F7032D0234023A024602520207
:10044000E1025E02670270027C0288029402A50249
:10045000B102E102BD02C902D50284B5806884BD43
:1004600088EC87BDCF91089584B5806284BD88EC07
:1004700088BDF8CF8091800080688093800088ECF0
:1004800090E09093890080938800ECCF8091800069
:1004900080628093800088EC90E090938B00809342
:1004A0008A00E0CF8091800088608093800088EC93
:1004B00090E090938D0080938C00D4CF8091B00019
:1004C00080688093B00088EC8093B300CBCF80919C
:1004D000B00080628093B00088EC8093B400C2CFFB
:1004E0008091900080688093900088EC90E09093D9
:1004F000990080939800B6CF80919000806280939D
:10050000900088EC90E090939B0080939A00AACF93
:100510008091900088608093900088EC90E09093A8
:100520009D0080939C009ECF8091A0008068809366
:10053000A0008091A0008F7B8093A00088EC90E0C9
:100540009093A9008093A8008DCF8091A000806235
:100550008093A00088EC90E09093AB008093AA0079
:1005600081CF8091A00088608093A00088EC90E00B
:100570009093AD008093AC0075CF8091200180688E
:100580008093200188EC90E09093290180932801CA
:1005900069CF8091200180628093200188EC90E0F7
:1005A00090932B0180932A015DCF80912001886078
:1005B0008093200188EC90E090932D0180932C0192
:1005C00051CF61E08C2FCF910C947B011F920F9241
:1005D0000FB60F9211242F933F938F939F93AF9356
:1005E000BF9380911D0290911E02A0911F02B091B5
:1005F000200230911C0223E0230F2D3758F501967D
:10060000A11DB11D20931C0280931D0290931E0218
:10061000A0931F02B09320028091180290911902BA
:10062000A0911A02B0911B020196A11DB11D8093E9
:10063000180290931902A0931A02B0931B02BF9163
:10064000AF919F918F913F912F910F900FBE0F907F
:100650001F90189526E8230F0296A11DB11DD2CF39
:10066000CF93DF93CDB7DEB768970FB6F894DEBFB0
:100670000FBECDBF789484B5826084BD84B581609F
:1006800084BD85B5826085BD85B5816085BD80915D
:100690006E00816080936E001092810080918100D5
:1006A00082608093810080918100816080938100CD
:1006B000809180008160809380008091B10084608F
:1006C0008093B1008091B00081608093B0008091F0
:1006D000910082608093910080919100816080936D
:1006E0009100809190008160809390008091A100A2
:1006F00082608093A1008091A10081608093A1001D
:100700008091A00081608093A0008091210182608F
:10071000809321018091210181608093210180914A
:10072000200181608093200180917A008460809311
:100730007A0080917A00826080937A0080917A00BA
:10074000816080937A0080917A00806880937A003B
:100750001092C10088E1E0E0F2E0DE011196019024
:100760000D928A95E1F78E010F5F1F4F7E0189E19F
:10077000E80EF11CF80180810E945C010E5F1F4FA2
:100780000E151F05B9F761E08EE10E947B0160E064
:100790008FE10E947B0186E00E94070261E080E217
:1007A0000E947B0160E081E20E947B0187E00E9461
:1007B000070261E083E20E947B0160E084E20E9424
:1007C0007B0188E00E94070261E085E20E947B01D4
:1007D00060E086E20E947B0189E00E94070200E05F
:1007E00010E001151105E9F30E940000FACFEE0FA9
:1007F000FF1F881F8BBF0790F691E02D1994F89486
:02080000FFCF28
:1008020006001E001F000700200021000800230030
:08081200240009002500260066
:00000001FF
